{
  "_format": "hh-sol-artifact-1",
  "contractName": "ERC20",
  "sourceName": "contracts/ERC20.sol",
  "abi": [
    {
      "inputs": [
        {
          "internalType": "uint256",
          "name": "initialSupply",
          "type": "uint256"
        }
      ],
      "stateMutability": "nonpayable",
      "type": "constructor"
    },
    {
      "anonymous": false,
      "inputs": [
        {
          "indexed": true,
          "internalType": "address",
          "name": "owner",
          "type": "address"
        },
        {
          "indexed": true,
          "internalType": "address",
          "name": "spender",
          "type": "address"
        },
        {
          "indexed": false,
          "internalType": "uint256",
          "name": "amount",
          "type": "uint256"
        }
      ],
      "name": "Approval",
      "type": "event"
    },
    {
      "anonymous": false,
      "inputs": [
        {
          "indexed": true,
          "internalType": "address",
          "name": "from",
          "type": "address"
        },
        {
          "indexed": true,
          "internalType": "address",
          "name": "to",
          "type": "address"
        },
        {
          "indexed": false,
          "internalType": "uint256",
          "name": "amount",
          "type": "uint256"
        }
      ],
      "name": "Transfer",
      "type": "event"
    },
    {
      "inputs": [
        {
          "internalType": "address",
          "name": "",
          "type": "address"
        },
        {
          "internalType": "address",
          "name": "",
          "type": "address"
        }
      ],
      "name": "allowance",
      "outputs": [
        {
          "internalType": "uint256",
          "name": "",
          "type": "uint256"
        }
      ],
      "stateMutability": "view",
      "type": "function"
    },
    {
      "inputs": [
        {
          "internalType": "address",
          "name": "spender",
          "type": "address"
        },
        {
          "internalType": "uint256",
          "name": "amount",
          "type": "uint256"
        }
      ],
      "name": "approve",
      "outputs": [
        {
          "internalType": "bool",
          "name": "",
          "type": "bool"
        }
      ],
      "stateMutability": "nonpayable",
      "type": "function"
    },
    {
      "inputs": [
        {
          "internalType": "address",
          "name": "",
          "type": "address"
        }
      ],
      "name": "balanceOf",
      "outputs": [
        {
          "internalType": "uint256",
          "name": "",
          "type": "uint256"
        }
      ],
      "stateMutability": "view",
      "type": "function"
    },
    {
      "inputs": [
        {
          "internalType": "address",
          "name": "sender",
          "type": "address"
        }
      ],
      "name": "balances",
      "outputs": [
        {
          "internalType": "uint256",
          "name": "",
          "type": "uint256"
        }
      ],
      "stateMutability": "view",
      "type": "function"
    },
    {
      "inputs": [
        {
          "internalType": "address",
          "name": "from",
          "type": "address"
        },
        {
          "internalType": "uint256",
          "name": "amount",
          "type": "uint256"
        }
      ],
      "name": "burn",
      "outputs": [],
      "stateMutability": "nonpayable",
      "type": "function"
    },
    {
      "inputs": [],
      "name": "decimals",
      "outputs": [
        {
          "internalType": "uint256",
          "name": "",
          "type": "uint256"
        }
      ],
      "stateMutability": "view",
      "type": "function"
    },
    {
      "inputs": [
        {
          "internalType": "address",
          "name": "to",
          "type": "address"
        },
        {
          "internalType": "uint256",
          "name": "amount",
          "type": "uint256"
        }
      ],
      "name": "mint",
      "outputs": [],
      "stateMutability": "nonpayable",
      "type": "function"
    },
    {
      "inputs": [],
      "name": "name",
      "outputs": [
        {
          "internalType": "string",
          "name": "",
          "type": "string"
        }
      ],
      "stateMutability": "view",
      "type": "function"
    },
    {
      "inputs": [],
      "name": "symbol",
      "outputs": [
        {
          "internalType": "string",
          "name": "",
          "type": "string"
        }
      ],
      "stateMutability": "view",
      "type": "function"
    },
    {
      "inputs": [],
      "name": "totalSupply",
      "outputs": [
        {
          "internalType": "uint256",
          "name": "",
          "type": "uint256"
        }
      ],
      "stateMutability": "view",
      "type": "function"
    },
    {
      "inputs": [
        {
          "internalType": "address",
          "name": "to",
          "type": "address"
        },
        {
          "internalType": "uint256",
          "name": "amount",
          "type": "uint256"
        }
      ],
      "name": "transfer",
      "outputs": [
        {
          "internalType": "bool",
          "name": "",
          "type": "bool"
        }
      ],
      "stateMutability": "nonpayable",
      "type": "function"
    },
    {
      "inputs": [
        {
          "internalType": "address",
          "name": "from",
          "type": "address"
        },
        {
          "internalType": "address",
          "name": "to",
          "type": "address"
        },
        {
          "internalType": "uint256",
          "name": "amount",
          "type": "uint256"
        }
      ],
      "name": "transferFrom",
      "outputs": [
        {
          "internalType": "bool",
          "name": "",
          "type": "bool"
        }
      ],
      "stateMutability": "nonpayable",
      "type": "function"
    }
  ],
  "bytecode": "0x60a060405260126080908152503480156200001957600080fd5b506040516200193e3803806200193e83398181016040528101906200003f919062000324565b33600360006101000a81548173ffffffffffffffffffffffffffffffffffffffff021916908373ffffffffffffffffffffffffffffffffffffffff16021790555030600460006101000a81548173ffffffffffffffffffffffffffffffffffffffff021916908373ffffffffffffffffffffffffffffffffffffffff160217905550620000d333826200015c60201b60201c565b33600560006101000a81548173ffffffffffffffffffffffffffffffffffffffff021916908373ffffffffffffffffffffffffffffffffffffffff16021790555030600660006101000a81548173ffffffffffffffffffffffffffffffffffffffff021916908373ffffffffffffffffffffffffffffffffffffffff1602179055505062000493565b62000178816000546200028660201b6200077f1790919060201c565b600081905550620001d781600160008573ffffffffffffffffffffffffffffffffffffffff1673ffffffffffffffffffffffffffffffffffffffff168152602001908152602001600020546200028660201b6200077f1790919060201c565b600160008473ffffffffffffffffffffffffffffffffffffffff1673ffffffffffffffffffffffffffffffffffffffff168152602001908152602001600020819055508173ffffffffffffffffffffffffffffffffffffffff16600073ffffffffffffffffffffffffffffffffffffffff167fddf252ad1be2c89b69c2b068fc378daa952ba7f163c4a11628f55a4df523b3ef836040516200027a919062000367565b60405180910390a35050565b6000828284620002979190620003b3565b9150811015620002de576040517f08c379a0000000000000000000000000000000000000000000000000000000008152600401620002d59062000471565b60405180910390fd5b92915050565b600080fd5b6000819050919050565b620002fe81620002e9565b81146200030a57600080fd5b50565b6000815190506200031e81620002f3565b92915050565b6000602082840312156200033d576200033c620002e4565b5b60006200034d848285016200030d565b91505092915050565b6200036181620002e9565b82525050565b60006020820190506200037e600083018462000356565b92915050565b7f4e487b7100000000000000000000000000000000000000000000000000000000600052601160045260246000fd5b6000620003c082620002e9565b9150620003cd83620002e9565b9250827fffffffffffffffffffffffffffffffffffffffffffffffffffffffffffffffff0382111562000405576200040462000384565b5b828201905092915050565b600082825260208201905092915050565b7f64732d6d6174682d6164642d6f766572666c6f77000000000000000000000000600082015250565b60006200045960148362000410565b9150620004668262000421565b602082019050919050565b600060208201905081810360008301526200048c816200044a565b9050919050565b60805161148f620004af60003960006104da015261148f6000f3fe608060405234801561001057600080fd5b50600436106100b45760003560e01c806340c10f191161007157806340c10f19146101a357806370a08231146101bf57806395d89b41146101ef5780639dc29fac1461020d578063a9059cbb14610229578063dd62ed3e14610259576100b4565b806306fdde03146100b9578063095ea7b3146100d757806318160ddd1461010757806323b872dd1461012557806327e235e314610155578063313ce56714610185575b600080fd5b6100c1610289565b6040516100ce9190610e91565b60405180910390f35b6100f160048036038101906100ec9190610f4c565b6102c2565b6040516100fe9190610fa7565b60405180910390f35b61010f6102d9565b60405161011c9190610fd1565b60405180910390f35b61013f600480360381019061013a9190610fec565b6102df565b60405161014c9190610fa7565b60405180910390f35b61016f600480360381019061016a919061103f565b61048f565b60405161017c9190610fd1565b60405180910390f35b61018d6104d8565b60405161019a9190610fd1565b60405180910390f35b6101bd60048036038101906101b89190610f4c565b6104fc565b005b6101d960048036038101906101d4919061103f565b61057b565b6040516101e69190610fd1565b60405180910390f35b6101f7610593565b6040516102049190610e91565b60405180910390f35b61022760048036038101906102229190610f4c565b6105cc565b005b610243600480360381019061023e9190610f4c565b610689565b6040516102509190610fa7565b60405180910390f35b610273600480360381019061026e919061106c565b61075a565b6040516102809190610fd1565b60405180910390f35b6040518060400160405280600b81526020017f4d594465782d455243323000000000000000000000000000000000000000000081525081565b60006102cf3384846107d8565b6001905092915050565b60005481565b600081600260008673ffffffffffffffffffffffffffffffffffffffff1673ffffffffffffffffffffffffffffffffffffffff16815260200190815260200160002060003373ffffffffffffffffffffffffffffffffffffffff1673ffffffffffffffffffffffffffffffffffffffff16815260200190815260200160002054101561036a57600080fd5b6103f982600260008773ffffffffffffffffffffffffffffffffffffffff1673ffffffffffffffffffffffffffffffffffffffff16815260200190815260200160002060003373ffffffffffffffffffffffffffffffffffffffff1673ffffffffffffffffffffffffffffffffffffffff168152602001908152602001600020546108c390919063ffffffff16565b600260008673ffffffffffffffffffffffffffffffffffffffff1673ffffffffffffffffffffffffffffffffffffffff16815260200190815260200160002060003373ffffffffffffffffffffffffffffffffffffffff1673ffffffffffffffffffffffffffffffffffffffff1681526020019081526020016000208190555061048484848461091c565b600190509392505050565b6000600160008373ffffffffffffffffffffffffffffffffffffffff1673ffffffffffffffffffffffffffffffffffffffff168152602001908152602001600020549050919050565b7f000000000000000000000000000000000000000000000000000000000000000081565b600560009054906101000a900473ffffffffffffffffffffffffffffffffffffffff1661052881610ab0565b600054821061056c576040517f08c379a0000000000000000000000000000000000000000000000000000000008152600401610563906110f8565b60405180910390fd5b6105768383610b43565b505050565b60016020528060005260406000206000915090505481565b6040518060400160405280600581526020017f4d4445323000000000000000000000000000000000000000000000000000000081525081565b600560009054906101000a900473ffffffffffffffffffffffffffffffffffffffff166105f881610ab0565b81600160008573ffffffffffffffffffffffffffffffffffffffff1673ffffffffffffffffffffffffffffffffffffffff16815260200190815260200160002054101561067a576040517f08c379a000000000000000000000000000000000000000000000000000000000815260040161067190611164565b60405180910390fd5b6106848383610c5d565b505050565b60008073ffffffffffffffffffffffffffffffffffffffff168373ffffffffffffffffffffffffffffffffffffffff1614156106c457600080fd5b81600160003373ffffffffffffffffffffffffffffffffffffffff1673ffffffffffffffffffffffffffffffffffffffff1681526020019081526020016000205411610745576040517f08c379a000000000000000000000000000000000000000000000000000000000815260040161073c906111d0565b60405180910390fd5b61075033848461091c565b6001905092915050565b6002602052816000526040600020602052806000526040600020600091509150505481565b600082828461078e919061121f565b91508110156107d2576040517f08c379a00000000000000000000000000000000000000000000000000000000081526004016107c9906112c1565b60405180910390fd5b92915050565b80600260008573ffffffffffffffffffffffffffffffffffffffff1673ffffffffffffffffffffffffffffffffffffffff16815260200190815260200160002060008473ffffffffffffffffffffffffffffffffffffffff1673ffffffffffffffffffffffffffffffffffffffff168152602001908152602001600020819055508173ffffffffffffffffffffffffffffffffffffffff168373ffffffffffffffffffffffffffffffffffffffff167f8c5be1e5ebec7d5bd14f71427d1e84f3dd0314c0f7b2291e5b200ac8c7c3b925836040516108b69190610fd1565b60405180910390a3505050565b60008282846108d291906112e1565b9150811115610916576040517f08c379a000000000000000000000000000000000000000000000000000000000815260040161090d90611361565b60405180910390fd5b92915050565b61096e81600160008673ffffffffffffffffffffffffffffffffffffffff1673ffffffffffffffffffffffffffffffffffffffff168152602001908152602001600020546108c390919063ffffffff16565b600160008573ffffffffffffffffffffffffffffffffffffffff1673ffffffffffffffffffffffffffffffffffffffff16815260200190815260200160002081905550610a0381600160008573ffffffffffffffffffffffffffffffffffffffff1673ffffffffffffffffffffffffffffffffffffffff1681526020019081526020016000205461077f90919063ffffffff16565b600160008473ffffffffffffffffffffffffffffffffffffffff1673ffffffffffffffffffffffffffffffffffffffff168152602001908152602001600020819055508173ffffffffffffffffffffffffffffffffffffffff163373ffffffffffffffffffffffffffffffffffffffff167fddf252ad1be2c89b69c2b068fc378daa952ba7f163c4a11628f55a4df523b3ef83604051610aa39190610fd1565b60405180910390a3505050565b600360009054906101000a900473ffffffffffffffffffffffffffffffffffffffff1673ffffffffffffffffffffffffffffffffffffffff168173ffffffffffffffffffffffffffffffffffffffff1614610b40576040517f08c379a0000000000000000000000000000000000000000000000000000000008152600401610b37906113cd565b60405180910390fd5b50565b610b588160005461077f90919063ffffffff16565b600081905550610bb081600160008573ffffffffffffffffffffffffffffffffffffffff1673ffffffffffffffffffffffffffffffffffffffff1681526020019081526020016000205461077f90919063ffffffff16565b600160008473ffffffffffffffffffffffffffffffffffffffff1673ffffffffffffffffffffffffffffffffffffffff168152602001908152602001600020819055508173ffffffffffffffffffffffffffffffffffffffff16600073ffffffffffffffffffffffffffffffffffffffff167fddf252ad1be2c89b69c2b068fc378daa952ba7f163c4a11628f55a4df523b3ef83604051610c519190610fd1565b60405180910390a35050565b80600160008473ffffffffffffffffffffffffffffffffffffffff1673ffffffffffffffffffffffffffffffffffffffff1681526020019081526020016000205411610cde576040517f08c379a0000000000000000000000000000000000000000000000000000000008152600401610cd590611439565b60405180910390fd5b610cf3816000546108c390919063ffffffff16565b600081905550610d4b81600160008573ffffffffffffffffffffffffffffffffffffffff1673ffffffffffffffffffffffffffffffffffffffff168152602001908152602001600020546108c390919063ffffffff16565b600160008473ffffffffffffffffffffffffffffffffffffffff1673ffffffffffffffffffffffffffffffffffffffff16815260200190815260200160002081905550600073ffffffffffffffffffffffffffffffffffffffff168273ffffffffffffffffffffffffffffffffffffffff167fddf252ad1be2c89b69c2b068fc378daa952ba7f163c4a11628f55a4df523b3ef83604051610dec9190610fd1565b60405180910390a35050565b600081519050919050565b600082825260208201905092915050565b60005b83811015610e32578082015181840152602081019050610e17565b83811115610e41576000848401525b50505050565b6000601f19601f8301169050919050565b6000610e6382610df8565b610e6d8185610e03565b9350610e7d818560208601610e14565b610e8681610e47565b840191505092915050565b60006020820190508181036000830152610eab8184610e58565b905092915050565b600080fd5b600073ffffffffffffffffffffffffffffffffffffffff82169050919050565b6000610ee382610eb8565b9050919050565b610ef381610ed8565b8114610efe57600080fd5b50565b600081359050610f1081610eea565b92915050565b6000819050919050565b610f2981610f16565b8114610f3457600080fd5b50565b600081359050610f4681610f20565b92915050565b60008060408385031215610f6357610f62610eb3565b5b6000610f7185828601610f01565b9250506020610f8285828601610f37565b9150509250929050565b60008115159050919050565b610fa181610f8c565b82525050565b6000602082019050610fbc6000830184610f98565b92915050565b610fcb81610f16565b82525050565b6000602082019050610fe66000830184610fc2565b92915050565b60008060006060848603121561100557611004610eb3565b5b600061101386828701610f01565b935050602061102486828701610f01565b925050604061103586828701610f37565b9150509250925092565b60006020828403121561105557611054610eb3565b5b600061106384828501610f01565b91505092915050565b6000806040838503121561108357611082610eb3565b5b600061109185828601610f01565b92505060206110a285828601610f01565b9150509250929050565b7f416d6f756e74206578636565647320746f74616c20737570706c790000000000600082015250565b60006110e2601b83610e03565b91506110ed826110ac565b602082019050919050565b60006020820190508181036000830152611111816110d5565b9050919050565b7f496e73756666696369656e742062616c616e636520746f206275726e00000000600082015250565b600061114e601c83610e03565b915061115982611118565b602082019050919050565b6000602082019050818103600083015261117d81611141565b9050919050565b7f496e73756666696369656e742042616c616e6365210000000000000000000000600082015250565b60006111ba601583610e03565b91506111c582611184565b602082019050919050565b600060208201905081810360008301526111e9816111ad565b9050919050565b7f4e487b7100000000000000000000000000000000000000000000000000000000600052601160045260246000fd5b600061122a82610f16565b915061123583610f16565b9250827fffffffffffffffffffffffffffffffffffffffffffffffffffffffffffffffff0382111561126a576112696111f0565b5b828201905092915050565b7f64732d6d6174682d6164642d6f766572666c6f77000000000000000000000000600082015250565b60006112ab601483610e03565b91506112b682611275565b602082019050919050565b600060208201905081810360008301526112da8161129e565b9050919050565b60006112ec82610f16565b91506112f783610f16565b92508282101561130a576113096111f0565b5b828203905092915050565b7f64732d6d6174682d7375622d756e646572666c6f770000000000000000000000600082015250565b600061134b601583610e03565b915061135682611315565b602082019050919050565b6000602082019050818103600083015261137a8161133e565b9050919050565b7f596f75277265206e6f7420746865206f776e6572210000000000000000000000600082015250565b60006113b7601583610e03565b91506113c282611381565b602082019050919050565b600060208201905081810360008301526113e6816113aa565b9050919050565b7f496e73756666696369656e742042616c616e6365000000000000000000000000600082015250565b6000611423601483610e03565b915061142e826113ed565b602082019050919050565b6000602082019050818103600083015261145281611416565b905091905056fea26469706673582212206d1d485e54128bdb3e92a9ca2025115bcf899c88f1a37da8fdc583d6af84f41064736f6c634300080a0033",
  "linkReferences": {},
  "deployedLinkReferences": {}
}